:020000040800F2
:10000000AC4D00209D130008D1220008D522000825
:10001000D9220008DD220008E122000800000000CB
:10002000000000000000000000000000E5220008C1
:10003000E922000800000000ED220008F12200087B
:10004000411400084114000841140008411400083C
:10005000411400084114000841140008411400082C
:10006000411400084114000841140008C915000893
:10007000411400084114000841140008411400080C
:1000800041140008411400084114000841140008FC
:10009000F52200084114000841140008411400082A
:1000A00041140008411400084114000841140008DC
:1000B00041140008411400084114000841140008CC
:1000C00041140008411400084114000841140008BC
:1000D00041140008411400084114000841140008AC
:1000E00041140008411400084114000800000000F9
:1000F0000000000000000000000000000000000000
:1001000000000000000000005FF808F108B538B1F9
:1001100006490B681A689047054800680A3008BD10
:10012000034901220B681A8208BD00BF4C49002018
:100130005049002008B538B106490B689A689047C5
:10014000054800680C3008BD034901220B681A827B
:1001500008BD00BF4C4900205049002008B50028C8
:1001600029D02A4A2A4800231268038092F800C046
:100170001CF07F0318D1517A90F800E011F0200FA5
:1001800014BF4EF0020E0EF0FD0E11F0400F14BF22
:100190004EF0010E2EF0010E80F800E01D4B1968A4
:1001A000086980471A4808BD012B00D108BD022B01
:1001B00006D00020FAE7154902220B681A8208BD12
:1001C00092F805C01CF0800F0CF00F0211D19300C3
:1001D00003F1804101F5B84EDEF8002002F4405CE6
:1001E000BCF5805FDAD1027842F0010C80F800C0E3
:1001F000D4E7930003F1804101F5B84EDEF800200A
:1002000002F03003102BC9D1EDE700BF50490020A8
:10021000080100204C49002038B5344B1B68187881
:1002200010F07F002ED0022801D0022038BD5A885D
:100230003ABB197929BB5A7912F0800F22F080005D
:1002400025D1840004F1804C0CF5B844256805F4F0
:100250004055274909788842E7D2002DE5D09B7A9E
:1002600073B112F0800F1BD0226802F0300EBEF185
:10027000100F2ED01F490A6850698047002038BDF2
:10028000022038BD597A21F020025A7238BD81000F
:1002900001F1804404F5B844256805F03005D8E73D
:1002A000216801F4405CBCF5805FE3D1D0B9124B0A
:1002B00093F82C1001F036F823684BF68F7103EA9F
:1002C000010C8CF4405242F4004E4EF0800020604D
:1002D000D0E7C4B2204600F0BBFF2046302100F03A
:1002E0002FFFC7E700F0A0FFE6E700BF504900205E
:1002F000840000204C4900205400002038B5244BD5
:1003000019684B7913F0800F23F0800227D19000F9
:1003100000F1804C0CF5B840056805F440551D4CC3
:100320002478A24219D24A88BAB9B5B1897AF9B10A
:1003300013F0800F1ED0036848F6BF7103EA010274
:1003400082F0100C4CF4004E4EF080030360124B10
:10035000196888698047002038BD022038BD9400A4
:1003600004F1804000F5B840056805F03005D6E797
:10037000022038BD02684BF68F7302EA030181F454
:10038000805C4CF4004E4EF080020260DFE700BF5C
:1003900050490020840000204C490020054B1B6878
:1003A0005A8A10B108688018704789888A1A1A8298
:1003B000704700BF504900202DE9F0419A4F9B4CF7
:1003C0003A6827689A4995B23A7A68184300092A28
:1003D00082B01B684CD099B201F1005000F5405634
:1003E00073001D4615F801EB03F10A0687F800E0DB
:1003F00093F801C087F801C0B5F8030000F0C8FF0A
:100400007880B5F80700256800F0C2FFA88027684B
:1004100073880122FB803A72002B2ED0797806294E
:1004200000F09D80002965D17A88002A00F0AE8016
:10043000804D2B6808461A699047032800F07B819D
:1004400025684FF6FF7E2E8A764566D0022834D086
:10045000002E32D095F900C0BCF1000FC0F2CC8064
:10046000754B03214FF4405E2972A3F800E026E0AB
:10047000FB8801223A72002BD0D197F800C07D781A
:100480001CF07F034CD1092D00F08E81052D00F06A
:100490006781032D00F07481012D00F03781654ED6
:1004A0003368284659698847032800F09681002858
:1004B00044D0276808233B7201E008232B725F4A6F
:1004C000002092F82C1000F02DFF2068007A0828F8
:1004D00007D1594A5A4B4FF4805C1021A2F800C052
:1004E0001980A0F10900D0F1000E4EEB000002B01F
:1004F000BDE8F08108295CD13A7812F07F0F97D1DE
:10050000504B00267E820020BB61984725684FF63D
:10051000FF7E2E8A0020764598D109222A72CEE7E6
:10052000012B00F09980022BB9D1012D00F0FD8044
:10053000032DB4D1FFF7E2FE0028B0D13A4F424874
:100540003A6800271FFA82FE0EEB000359000F6085
:100550003B4A27683020062310803B72AFE73D7886
:1005600015F07F0F7FF464AFBB78012B00F0318171
:10057000022B00F0E480032B7FF45AAF2D4D286846
:10058000436A002BBDD12168497852E77D6825F484
:100590007F4CBCF5003F7FF44BAF97F800E01EF0B6
:1005A0007F0340F01E81BB88002B7FF441AF274BB7
:1005B000A7E70A297FF43CAF3D7805F07F03012BC4
:1005C0007FF436AFB87A00283FF432AF7A88002A39
:1005D0007FF42EAF7B6823F47F4CBCF5803F7FF423
:1005E00027AF144D11462B6878799A6990470028F7
:1005F000C9D12768164B84E7EB880193019FBE425F
:1006000050D89E4280F010810A48076897F82C3035
:100610009E4280F00E810F4A00211170AB82B342DE
:100620004ED202274DE000BF505C004050490020F0
:1006300004300020284900200A0100205400002036
:100640000C0100200D010008023000205D010008AF
:1006500035010008E40000200B2D7FF420AF8E4E02
:10066000F978336878799A6990472368997A0029EC
:100670003FF416AF00287FF413AF187900287FF4F9
:100680000FAF9F78002F7FF40BAF844A1768F8688C
:100690008047834B1A68517992F803C0D17282F86F
:1006A0000CC04BE701997C488AB206682A8296F80A
:1006B0002C302F7A1646AB82002AB0D1042F42D0BC
:1006C0000427B34238BF1E46AA6930469047804689
:1006D000002000F0F7FD32460146404601F0BEFF23
:1006E0003146002000F00EFE288A698AC6EB000C15
:1006F0007618A5F810C06E826A4B25686A483022C9
:100700004FF440511A8001802F72D8E697F803E029
:10071000BEF1010F7FF4C3AEB88800287FF4BFAEEE
:100720007F7A17F0200F3FF4BAAEFFF775FD00286F
:100730003FF404AFB3E6216809200872BFE6564DC6
:100740002B681B6A1DE7594B93F800E0BEF1010FBF
:1007500000F08980534B072710221A802F72AEE6D3
:1007600097F903C0BCF1000F07DBB97829B9BA8843
:100770001AB9BB7A002B3FF4E1AE08233B729EE628
:1007800097F803E0BEF1010F7FF489AEB888002826
:100790007FF485AE7B7A414A43F0200C87F809C08C
:1007A0001168CF69B847C9E64148FB7890F801E085
:1007B0009E45FFF474AEB97800297FF470AEBA8814
:1007C000002A7FF46CAE3548BB7203685F68B84797
:1007D000B4E6314D2968CB69D3E6276809233B721B
:1007E0006DE6012B30D0022B7FF422AE7B7913F023
:1007F000800F03F00F0244D1900000F1804C0CF503
:10080000B84EDEF8005005F44055294890F800E055
:100810007245BFF40DAE13F0700F7FF409AE002DDA
:100820003FF406AE234B6CE61B4B1A6892F82C3053
:10083000F4E696FBF3F803FB1867002F7FF4EEAEA7
:100840001A4901200870E9E6134D78792B689A69F6
:10085000904700287FF497AE2768B97A00297FF483
:10086000A6AE7978E5E51448144900681FFA80FCC3
:10087000614448000B490260302008801A702F72D2
:100880001DE6900000F1804505F5B84CDCF800004D
:1008900000F03005B9E700BF284900204C4900208E
:1008A000504900200C0100200A010020E400002033
:1008B000840000205D010008505C004002300020F0
:1008C0002DE9F0419C4D2C68277A022F2AD0042F65
:1008D00028D0062F1AD0082398492372002091F8B7
:1008E0002C1000F01FFD2A68107A082806D19449C0
:1008F000944B4FF4805610220E801A80A0F1090C00
:10090000DCF1000E4EEB0C00BDE8F08194F801E044
:10091000BEF1050F3AD08C4B1C68A16888472C6843
:100920000823D9E7228A002A2AD0A68AB2422BD9E4
:100930000227964228BF1646A3693046984780464C
:10094000002000F0BFFC32460146404601F086FE22
:100950003146002000F0D6FC208A628A811B06EB1B
:10096000020C784B30262182A4F812C074482C68FF
:100970001E80FFB24FF440563B4606802772ABE71D
:10098000042F00F0BE80A68A0427D2E794F800C0A6
:100990001CF07F0FBFD1E6786C4C2478002C00F05F
:1009A000A7806B4A40F60F7C1068611E00EA0C0EAF
:1009B0004EF4004343F0800001239C42106001F09C
:1009C000030240F29580002A3BD0012A22D0022A5D
:1009D0000BD0604F40F60F71386848F2810300EA8F
:1009E000010242EA030038600223D9B28A0002F110
:1009F000804E0EF5B84EDEF8000041F4004740F698
:100A00000F7247F0800100EA020C41EA0C07CEF8B1
:100A100000700133D9B28A0002F1804707F5B84C63
:100A2000DCF8007041F4004040F60F7240F08001A5
:100A300007EA020E013341EA0E009C42CCF80000A6
:100A400056D9D8B2870007F1804C0CF5B84CDCF8C9
:100A500000E0591CC9B240F4004240F60F7742F062
:100A600080000EEA07024FEA810E40EA02070EF10B
:100A7000804ECCF800700EF5B84EDEF800C0981C21
:100A8000C0B241F4004240F60F7742F080010CEA18
:100A900007028700114307F1804CCEF800100CF5D7
:100AA000B847D7F800E0DA1C5FFA82FC40F4004156
:100AB00040F60F7241F080000EEA020E4FEA8C0100
:100AC00040EA0E0201F1804E3A600EF5B84EDEF8B3
:100AD00000704CF4004140F60F7041F0800C07EAC2
:100AE000000204334CEA02019C42CEF80010A8D860
:100AF00019481A4A036846F0800616601C6AA04727
:100B000009E717490B78012B06D00E4A0727102159
:100B100011803B462772DFE6124B134E18681FFA0E
:100B200080FC0CEB06035E000648326030263B4634
:100B300006800A702772CFE650490020540000203A
:100B40000A0100200C010020284900208400002018
:100B5000005C0040045C00404C4900204C5C0040BC
:100B6000E4000020505C004002300020F8B53A4D0F
:100B70002C68237A022B07D0042B05D0032B1ED020
:100B8000052B1CD0072B57D00823344A2372002092
:100B900092F82C1000F0C6FB2968087A082807D1C3
:100BA0002F4A304B4FF4805C1021A2F800C019800E
:100BB000A0F10900D0F1000E4EEB0000F8BDA369D2
:100BC000228AB3B11AB3A68A964228BF1646304687
:100BD0009847218A0746608A8A1B331822826382DB
:100BE000002000F07FFB32460146384601F090FDC0
:100BF000228A62B11A4A00204FF4405C0146A2F8F2
:100C000000C000F07FFB174B3020228A1880A48A96
:100C1000944218D9DAB92C680620134920720B685F
:100C200012481FFA83FE0EEB00014B000D481A60BC
:100C30003021237A0180A8E70D4B1C68E2689047B9
:100C40002C680823A1E72C68032323729DE72C68F6
:100C50000523237299E700BF50490020540000206B
:100C60000A0100200C010020505C004002300020EE
:100C700028490020F0B4544B1F78002F00F09E80CC
:100C8000524A40F60F7C1468791E04EA0C0343F4C0
:100C9000004C4CF08003136001239F4201F00302DB
:100CA00040F28C80002A37D0012A20D0022A0BD0B3
:100CB000474940F60F750B6848F2810C03EA0502BC
:100CC00042EA0C040C600223D9B28A0002F180448B
:100CD00004F5B844256841F4004C40F60F724CF01E
:100CE000800105EA020C41EA0C0121600133D9B20E
:100CF0008C0004F1804505F5B844256841F4004CAA
:100D000040F60F724CF08001013305EA020C41EA13
:100D10000C019F42216051D9DCB2A50005F180424F
:100D200002F5B842D2F800C0591C44F40046C9B2DA
:100D300040F60F740CEA040446F080054FEA810C7B
:100D400045EA04060CF18044166004F5B8442668B0
:100D50009D1CEDB240F60F7241F4004106EA020C10
:100D600041F08001AE0041EA0C0206F1804C2260A5
:100D70000CF5B84CDCF80060D91CC9B245F400454C
:100D800040F60F7406EA040445F080028E0042EA41
:100D9000040506F18044CCF8005004F5B8442568F9
:100DA00041F4004140F60F7241F0800C05EA020266
:100DB00004334CEA02019F422160ADD8054B40F05C
:100DC00080001860F0BC704784000020005C004088
:100DD000045C00404C5C0040704700BF00B583B02D
:100DE00000F016FC00200190019B0C4A934205DCA8
:100DF0000198431C019301999142F9DD00F010FC28
:100E0000002201920199054A914205DC0199481C92
:100E10000190019B9342F9DD03B000BDFFFF040088
:100E20000378052B01D0002070474278A2F1080119
:100E3000484240EB010070472DE9F04F674F83B007
:100E40000023DFF8ACA1DFF8B4B1DFF89C81ADF886
:100E50000430B946DBF80010614C3980B7F800C0A7
:100E6000604D0FFA8CF000284BF6BF725E4E80F298
:100E7000A880B9F800C00CF00F00830003F1804196
:100E800001F5B8418AF80000002836D12168A8F899
:100E90000010B8F8000000F0300CA5F800C0B8F859
:100EA000003003F44051A8F80010206800EA020264
:100EB00082F4005C8CF0200343F4004141F0800098
:100EC0002060B9F8002012F0100F46D02068ADF86D
:100ED0000400BDF804C01CF4006F75D1BDF804C057
:100EE0000FFA8CF3002BB5DA226840F68F7102EA14
:100EF00001002060FFF73AFE37E00E68ADF80460AD
:100F0000BDF804502CB2002C19DBBDF804C01CF055
:100F1000800F9FD09AF8003048F60F7E990001F1BB
:100F2000804C0CF5B8442668304B06EA0E05256067
:100F30009AF80000421E53F8221088478AE70E688C
:100F400040F68F7E06EA0E05294C0D602078294B6D
:100F5000421E53F822108847D7E7236848F60F7ED1
:100F600003EA0E022260FFF7ABFC236831884BF6E0
:100F7000BF7E01F4805C1FFA8CF003EA0E0308B117
:100F800083F48053B6F800E00EF4005082B20AB148
:100F900083F400532A8802F0100C1FFA8CF109B177
:100FA00083F01003298801F0200E1FFA8EF008B19B
:100FB00083F02003104843EA000C094B1FFA8CF21F
:100FC0001A6003B0BDE8F08F226840F68F7E02EA17
:100FD0000E012160FFF7F0F9C7E700BFAC49002020
:100FE000005C00400C0100200A010020AC00002041
:100FF0002C490020C80000208080FFFF445C004096
:101000003F4B404A1868002140F0010018605868C2
:1010100082B000EA02025A6018681A4620F0847C06
:101020002CF480301860186820F48020186058680C
:1010300020F4FE0058604FF41F0098600191009169
:10104000186840F48031196003E00198B0F5A06F92
:1010500009D0116801F4003300930198411C0191FB
:10106000009B002BF1D0264B1A6812F400330AD0F3
:10107000012100910098012809D023484FF0006118
:10108000816002B07047009300980128F5D11F4A93
:101090001B4B1068194640F010001060106820F0DB
:1010A00003001060106840F002001060586858603B
:1010B0005A685A60586840F480625A60586820F450
:1010C0007C125A60586840F4E8125A60186840F080
:1010D00080721A600B680A4A13F0007FFAD05368D6
:1010E000114623F003005060536843F00200506043
:1010F0004A6802F00C0CBCF1080FF9D1BDE700BF43
:10110000001002400000FFF800ED00E00020024067
:101110004FF6F871024A00EA01031360704700BFFE
:10112000505C0040800000F1804202F5B842136834
:1011300048F68F1C03EA0C0040EA01031360704775
:1011400010B4840004F1804000F5B840046801F058
:10115000100C48F6BF731FFA8CF204EA03030AB1BD
:1011600083F0100301F0200291B209B183F0200353
:1011700043F4004C4CF08003036010BC704700BF88
:1011800010B4840004F1804000F5B840046801F414
:10119000805C4BF68F731FFA8CF204EA03030AB1EA
:1011A00083F4805301F4005291B209B183F40053E7
:1011B00043F4004C4CF08003036010BC704700BF48
:1011C000810001F1804202F5B842106848F6BF7311
:1011D00000EA030C8CF0300141F4004040F0800341
:1011E00013607047810001F1804202F5B842106837
:1011F0004BF68F7300EA030C8CF4405141F400402D
:1012000040F0800313607047800000F1804202F5D7
:10121000B842136840F60F6C03EA0C0141F4004039
:1012200040F0800313607047800000F1804303F5B5
:10123000B8431A6812F4804F09D0196840F60F704D
:1012400001EA000242F4404C4CF080011960704702
:10125000800000F1804303F5B8431A6812F0400F94
:1012600009D0196840F60F7001EA000242F4004C00
:101270004CF0C00119607047074A4FF6FE731268C0
:1012800001EA030392B202EBC00C0CF1005101F52C
:101290004050420013607047505C0040074B10B450
:1012A0001C68074AA4B204EBC00398184FF6FE7CF2
:1012B000420001EA0C03136010BC7047505C004010
:1012C0000430002006490B681FFA83FC0CEBC002B7
:1012D00002F1005101F5405043001888704700BFEB
:1012E000505C0040054A064913681FFA83FC0CEB6A
:1012F000C002501843001888704700BF505C00407F
:1013000004300020054A064B12681FFA82FC0CEBE1
:10131000C002D01843001960704700BF505C004005
:10132000023000200F4A104B12681FFA82FC0CEBAF
:10133000030202EBC0035B003E290AD94A0911F0FF
:101340001F0F01D1501E82B2920242F40041196077
:1013500070474A0811F0010F18BF0132900218605F
:10136000704700BF505C004006300020064B074924
:101370001A6893B203EBC00C0CEB0102530019681E
:101380008805800D704700BF505C0040063000208B
:10139000C3B2000A40EA0320704700BF2DE9F041C4
:1013A0002249234CA14232D2224D0B462A4652F802
:1013B000046BC84343F8046B2018A342C0F38100B8
:1013C00025D298B101280BD0022805D0106805F16C
:1013D0000802186001F1080352F8041B43F8041BCB
:1013E00052F8040B43F8040BA34210D294465CF865
:1013F000047B5668D568DCF80400194641F8047B84
:101400005E604860DD6010331032A342EED30A48BC
:101410000A494FF000028842B8BF40F8042BFADBBB
:10142000FFF7EEFDBDE8F04100F004BD0000002034
:10143000E4000020F4280008E4000020B049002067
:10144000FEE700BF70B54FF4004092B000F030FEF0
:101450000120014600F036FE01214FF4C1600C4628
:10146000032600F03DFE1023504811A900258DF8F9
:1014700047308DF84660ADF8444000F061FA11A99C
:101480004B48ADF844608DF8475000F059FA494890
:1014900000F0CAFF484A4FF400730092474A4FF4E5
:1014A00000660192802243486946039305920693A1
:1014B0004FF4005220230893099202950495079651
:1014C0000A9501F031F83B48214601F053F83948BC
:1014D0000221224601F05CF822463648042101F040
:1014E00057F84FF4C0234FF4602235480BA90B93F3
:1014F0000D928DF830408DF831400E968DF83C40BD
:1015000000F00AFE2F480BA900F006FE2C482946E1
:101510002246022300F062FE224602232948214689
:1015200000F05CFE2748214600F0A4FE2448214636
:1015300000F028FE2248214600F018FE21482146EE
:1015400000F014FE1E4800F029FE1D4800F02CFE9D
:101550000028FAD11A4800F02BFE194800F02EFEA0
:101560000028FAD1174800F019FE164800F01CFEBA
:101570000028FAD1134800F01BFE124800F01EFEAE
:1015800003460028F9D10B21012410A88DF8401042
:101590008DF841308DF842308DF8434001F028F845
:1015A0000748214600F00EFE12B070BD000C01404D
:1015B00000080140080002404C24014014010020B2
:1015C000002401400028014010B5022000F0EAFF8D
:1015D00090B9042000F0E6FF40B90A489A2100F0D3
:1015E0005DFD0120BDE8104000F0ECBF06484FF45F
:1015F000007100F04DFDF4E704484FF4007100F075
:1016000047FDEEE78828000814010020140500209B
:10161000024BD86840F00102DA607047000C0140CC
:10162000024BD86820F00102DA607047000C0140DC
:10163000002010B500F036FD4FF400000121BDE898
:10164000104000F05BBD00BF00B54FF4C06083B038
:1016500000F0C4FF01231421002201A88DF804101A
:101660008DF805308DF806208DF8073000F0C0FFAA
:1016700003B000BD704700BFB1F1000C2DE9F007C9
:101680003BDD3C4C017822683B4D531C0CF1FF368E
:10169000A9540021B3F5804F2360A04606F003064D
:1016A00065D00122624528D0002E49D0964217D03D
:1016B000022E0AD0865CEE549B18B3F5804F23604F
:1016C00004BFC8F800100B460132865CEE540133AB
:1016D000B3F5804F236004BFC8F800100B460132F9
:1016E000865CEE540133B3F5804F236004BFC8F825
:1016F00000100B460132624522D1BDE8F007704769
:10170000C8F800100B465E1C7A1C10F802A0FA1CE8
:10171000B6F5804F266004BF0E46C8F8001005F8E5
:1017200003A007F10209731C10F80970B3F5804F8C
:10173000236004BFC8F800100B466245AF55DCD0EB
:1017400010F802A0571C5A1CB2F5804F226005F811
:1017500003A004BFC8F800100A4610F80790531CF5
:10176000B3F5804F236005F80290CCD1C8E7216023
:101770000B4696E7E8000020140900206D4A6E49E8
:10178000101D0B681168026810B4D21801D110BC8A
:101790007047100F092867D9684B373012019870CD
:1017A000100F00240928DC70644C67D9373012010F
:1017B0002071100F002409285C71604C67D9373004
:1017C0001201A071100F00240928DC715B4C67D94D
:1017D000373012012072100F002409285C72574C18
:1017E00067D937301201A072100F00240928DC726B
:1017F000524C67D9373012012073100F002409288A
:101800005C734E4C67D93730C2F30362A07300207B
:10181000092AD873494867D8303202740A0F002069
:10182000092A5874454867D93732090182740A0F6A
:101830000020092AD874414867D937320901027556
:101840000A0F0020092A58753C4867D93732C1F37E
:101850000361827500220929DA75384A67D8303168
:1018600011760021597692E7344B3030120198708E
:10187000100F00240928DC70304C97D8303012014A
:101880002071100F002409285C712C4C97D830303F
:101890001201A071100F00240928DC71274C97D881
:1018A000303012012072100F002409285C72234C82
:1018B00097D830301201A072100F00240928DC7272
:1018C0001E4C97D8303012012073100F00240928C5
:1018D0005C731A4C97D83030C2F30362A0730020B7
:1018E000092AD873154897D9373202740A0F002095
:1018F000092A5874114897D83032090182740A0FA6
:101900000020092AD8740D4897D830320901027591
:101910000A0F0020092A5875084897D83032C1F3B9
:101920000361827500220929DA75044A97D9373193
:10193000117696E7ECF7FF1FE8F7FF1F0000002085
:10194000CB7830B413F0100F18BF8A7803F00F046F
:1019500018BF14430A8812F0FF0F29D002F00105C6
:101960000168002D40F0DD8002F00205002D40F0FE
:10197000C28002F00405002D40F0C88002F0080586
:10198000002D40F08C8002F01005002D40F0928078
:1019900002F02005002D40F0988002F04005002D57
:1019A00040F09E8002F08005002D40F0C58001606F
:1019B000FF2A20D902F480754168002D26D102F457
:1019C0000075002D2DD102F48065002D34D102F474
:1019D0000065002D3BD102F48055002D41D102F469
:1019E0000055002D47D102F48045002D4DD102F461
:1019F000004212B9416030BC7047282B64F31F715C
:101A000000F0B080482B08BF0261F3E721F00F0C13
:101A1000282B44EA0C0100F0A380482BCFD10561AC
:101A2000CDE721F0F001282B41EA041100F0968067
:101A3000482BC8D10561C6E721F4706C282B4CEA0D
:101A4000042100F08980482BC1D10561BFE721F452
:101A50007041282B41EA04317CD0482BBBD1056171
:101A6000B9E721F4702C282B4CEA044170D0482BA4
:101A7000B5D10561B3E721F47001282B41EA045187
:101A800064D0482BAFD10561ADE721F0706C282BF5
:101A90004CEA046158D0482BA9D10561A7E721F48D
:101AA000704C282B4CEA043168D0482B7FF46BAF84
:101AB000056168E721F47021282B41EA04415BD0DD
:101AC000482B7FF465AF056162E721F4700C282B89
:101AD0004CEA045156D0482B7FF45FAF05615CE7B8
:101AE00021F07061282B41EA046149D0482B7FF432
:101AF00059AF056156E721F0F00C282B4CEA041190
:101B000038D0482B7FF435AF056132E721F470619E
:101B1000282B41EA04212BD0482B7FF42FAF0561FD
:101B20002CE721F00F01282B44EA01011CD0482B9F
:101B30007FF41AAF056117E7282B64F31F7115D0E6
:101B4000482B08BF056132E7456150E745614AE728
:101B5000456144E745613EE7456138E7456132E765
:101B600045612CE7426145E74561FDE645611EE7B9
:101B7000456103E74561FCE6456109E7456102E728
:101B800045610FE7456108E70348837A13B10349CC
:101B900005220A60704700BF30490020F80000208D
:101BA000014B04221A607047F8000020034B1A789A
:101BB000202A01D100201870704700BFF4000020D7
:101BC000704700BF212808B503D020280AD0022082
:101BD00008BD104A1168087800F07F03212BF6D168
:101BE0000D4B0DE00B4A0D49136893F800C00C4BE8
:101BF0000CF07F0CBCF1210F18BF002308703BB123
:101C0000126800210020936151829847002008BD8E
:101C1000022008BD504900205D1C0008F40000208F
:101C2000751C0008084B1A68117801F07F03212BFE
:101C300001D002207047022804D0222814BF0220BD
:101C400000207047002070475049002021B901282A
:101C50008CBF0220002070470220704708B1034863
:101C60007047034908220B681A8270471C00002045
:101C70005049002008B103487047034908220B6807
:101C80001A8270471C0000205049002005490B684B
:101C9000DB78042B01D900207047034A02EBC30113
:101CA000FEF77CBB50490020240000200149FEF7CC
:101CB00075BB00BF440000200149FEF76FBB00BFA9
:101CC0004C00002010B5344A344C106894F807C01A
:101CD000002480F809C08472C4722046FFF718FA05
:101CE00020464FF40071FFF71DFA10212046FFF740
:101CF00027FA40212046FFF7D1FA80212046FFF73E
:101D0000BBFA2046FFF780FA2549204691F8641077
:101D1000FFF708FB2046FFF765FA01202146FFF791
:101D200001FA0120C021FFF7A7FA01202021FFF7C7
:101D300007FA01202146FFF723FA02204FF4C06181
:101D4000FFF7F0F902204FF48071FFF795FA0220B7
:101D50002146FFF715FA02202021FFF7F1F90320B1
:101D60002146FFF7DFF903204FF48871FFF796FA59
:101D700003204021FFF7D6FA03204FF44051FFF72C
:101D8000FFF921460320FFF7DBF92046FEF772FF3B
:101D9000044B01221A6010BD504900200C28000895
:101DA0001C000020F800002010B5FFF7E7FC0549F3
:101DB00000240868847200F009F800F067FA024B0A
:101DC0001C6010BD50490020F800002010B5012013
:101DD000FFF750FC064B01241C600648064C00220D
:101DE0004FF4E05101801A6010462260196010BD66
:101DF000405C004054490020445C004008B5074A5C
:101E0000074B022107481A601172074B0749084A1D
:101E1000186011600368984708BD00BF3049002072
:101E2000504900205400002028490020880000204C
:101E30004C4900202DE9F84FDFF82882854DFFF747
:101E400001FBFEF7CBFFFEF7C9FFFFF7F1FBFFF742
:101E5000FBFBFFF7D3FF0023DFF80C921E46DFF8F1
:101E600000B2C8F80030C8F804302F469A460AE09D
:101E7000581E3860FFF7CCFB297901290BD0D8F820
:101E80000030B34241D12B68002BF1DCFFF7C8FBD7
:101E900029790129F3D187F804A0FFF7C1FB3C6839
:101EA0006D4804F5EA42303218213A60FFF7E4FB4E
:101EB000B92416216948FFF7DFFB16216748FFF7B1
:101EC000DBFB16216548FFF7D7FB16216348FFF7B8
:101ED000D3FB16216148FFF7CFFB053CE9D1D9F8C8
:101EE00000005F49431CB3F5804F0BF8004000F041
:101EF000A7805A1CB2F5804F08BF0022CC54C9F805
:101F00000020D8F80030B342BDD0564E7268002A87
:101F100001DC1E46B7E7D9F8004003EB420293F814
:101F200001C0611CD61AB01EB1F5804F0BF804C079
:101F3000C9F80010C0F3410000F08780991C91425D
:101F4000E7D0002837D0012822D002280FD0D9F8B6
:101F500000404E78601CB0F5804FC9F8000008BF03
:101F600041480BF8046008BFC0F800A00231D9F85E
:101F7000004091F801E0601CB0F5804FC9F8000006
:101F800008BF39480BF804E008BFC0F800A00231D0
:101F9000D9F8004091F801C0601CB0F5804FC9F835
:101FA000000008BF30480BF804C008BFC0F800A00C
:101FB00002319142ADD0D9F8004091F801C0601CC7
:101FC000B0F5804FC9F8000008BF27480BF804C0DF
:101FD00008BFC0F800A0D9F80040023191F801E034
:101FE000601CB0F5804F0BF804E0C9F8000002D186
:101FF0001D4EC6F800A0D9F8004091F803C0601C3F
:10200000B0F5804FC9F8000008BF17480BF804C0AE
:1020100008BFC0F800A0D9F8004091F805E0601CA6
:10202000B0F5804FC9F8000008BF0F480BF804E076
:1020300008BFC0F800A006319142BCD11E4622E77D
:1020400001220C70C9F800205BE70749C1F800A025
:1020500074E700BFFC000020C4280008DC2800084A
:102060001409002064490020E8000020022908B576
:1020700001D9837803B108BD034AFEF7D1FE0028D9
:10208000F9D00249087108BD58490020FC00002021
:10209000014B1860596070476449002008B5FFF78C
:1020A000B7FAFEE7014B1860704700BFD800424204
:1020B000034B5A6822F4404140EA01025A607047DB
:1020C0000010024029B9054B5A6922EA0001596102
:1020D0007047024B5A691043586170470010024024
:1020E00029B9054B9A6922EA000199617047024BB0
:1020F0009A691043986170470010024029B9054B56
:10210000DA6922EA0001D9617047024BDA691043AB
:10211000D86170470010024070B445680C6825F41F
:10212000702391F804C023F4807242EA040646EA60
:102130000C25456085688E68CC680B4B4A7905EAAA
:10214000030346EA040444EA030C4CEA42038360B6
:102150000A7CC16A531E21F47002D9B242EA0153CB
:10216000C36270BC704700BFFDF7F1FF21B98368FF
:1021700023F0010282607047816841F001038360AF
:10218000704700BF21B9836823F480728260704772
:10219000816841F480738360704700BF816841F0BB
:1021A00008038360704700BF8068C0F3C0007047B9
:1021B000816841F004038360704700BF8068C0F30A
:1021C0008000704721B9836823F4A00282607047C1
:1021D000816841F4A0038360704700BF092970B48F
:1021E0001FD901EB41051E3D0726AE4013FA05F449
:1021F000C568062A25EA060C4CEA0403C3601ED90A
:102200000C2A29D902EB8202413A1F24944011FA88
:1022100002F2C36A23EA040C4CEA0201C16270BCF8
:10222000704701EB41050726AE4013FA05F4056936
:10223000062A25EA060C4CEA04030361E0D8013AB9
:1022400002EB82031F249C409940426B22EA040364
:1022500043EA01024263E2E702EB8202233A1F24CF
:10226000944011FA02F2036B23EA040C4CEA0201D7
:102270000163D4E721B9836823F480128260704738
:10228000816841F480138360704700BF044A0020D6
:1022900010600449044A4FF406430B8013607047F2
:1022A000445C004054490020405C004070B500F0A0
:1022B0007F0528460E46FFF759F804462846FFF7E3
:1022C00011F822460146304600F022FA204670BD41
:1022D000704700BFFEE700BFFEE700BFFEE700BF9C
:1022E000FEE700BF704700BF704700BF704700BFE8
:1022F000704700BF00F046BA10B5074C03202146D6
:10230000FFF7D4FFC1B22046FFF7B0FE0320BDE8BF
:102310001040FEF767BF00BF6C49002070B5134A3C
:102320001378012B00D070BD114B1D68E5B1114C25
:102330002268B2F5804F14D002F1400692B20E48E6
:10234000403D8018C02140221D60266000F086F9C3
:1023500001204021FEF7D6FF0120BDE87040FEF7C6
:102360002FBF00224026EAE7157070BD040100204F
:10237000F0000020EC0000201409002024482DE982
:10238000F0410368052B01D0BDE8F081214C217894
:102390000129F9D0204D2A68B2F5804F30D01F4B6B
:1023A000196891422FD038BF01F58041891A1C4B22
:1023B000B1F5005F19601ED2B1F5805FE4D34FF430
:1023C00080571F60DFF85CC090B2403F02F1400EC2
:1023D00001266044C02140221F60C5F800E026703D
:1023E00000F03CF930464021FEF78CFF3046BDE856
:1023F000F041FEF7E5BE4FF400561E603746E1E7B8
:1024000000222A60CBE700222270BDE8F08100BFE5
:10241000F800002004010020EC000020E80000206B
:10242000F00000201409002001684FF6FE7C002314
:1024300001EA0C020260036043608360C3602E4BBC
:10244000984228D02D4B98422CD02D4B984230D01A
:102450002C4B984234D02C4B98423FD02B4B984277
:1024600043D02B4B98420FD02A4B984213D02A4B83
:10247000984217D0294B98421BD0294B98421FD025
:10248000284B984223D0704753F87C1C41F070626F
:1024900043F87C2C704753F8042C42F00F0043F8AB
:1024A000040C704753F8180C40F0F00143F8181C66
:1024B000704753F82C1C41F4706243F82C2C704781
:1024C00053F8402C42F4704043F8400C704753F8E6
:1024D000540C40F4702143F8541CD4E753F8542CA6
:1024E00042F4702043F8540C704753F8680C40F4E1
:1024F000700143F8681C7047080002401C0002404D
:102500003000024044000240580002406C0002408B
:1025100080000240080402401C04024030040240D3
:1025200044040240580402408B68F0B40E6A0D69FE
:102530004F6946EA03042C438B69CE6944EA0702DB
:102540004D6A076842EA030C4CEA06068A6A46EAC4
:10255000050327F4FE47CE680D6843EA020C27F016
:10256000F0074A684CEA0703036046608560C26072
:10257000F0BC704731B903684FF6FE7C03EA0C02E9
:1025800002607047016841F001030360704700BFBB
:1025900022B9036823EA0102026070470368194305
:1025A0000160704710F0805F14BF044B044B1B6840
:1025B00003420CBF00200120704700BF000402400E
:1025C0000000024010F0805F14BF024B024B5860C5
:1025D000704700BF000402400000024040F0BE61AE
:1025E000024B41F42020D860704700BF00ED00E0AE
:1025F000C37830B463B90378012103F01F0011FAE6
:1026000000F05B09134A203342F8230030BC7047C6
:1026100011494478CD680F22EB43C3F3022132FA0B
:1026200001F3C1F10405AC408578017803EA050C9B
:10263000084B4CEA0402120101EB030C8CF8002356
:102640000378012103F01F029140024A580942F821
:102650002010DBE700E100E000ED00E00132521065
:10266000F0B453D00346457801F1005C13F8020B37
:10267000013A0CF5405440EA0521640010462180DF
:1026800002F003020421002840D0F2B1012A12D046
:10269000022A07D05D7813F8022B013842EA05219F
:1026A000A18008215D7813F8022B013842EA052C3D
:1026B00021F804C004315D7813F8022B42EA052C9E
:1026C00021F804C00431013820D01A4612F802CB98
:1026D0005F780D1D4CEA07260E5392F801C09F78D3
:1026E00001F1080647EA0C272F539578D77801F1B6
:1026F0000C0245EA072C26F804C0DE799D791031DA
:1027000045EA0625083304381553DED1F0BC70477E
:102710000132521070B433D001F1005101F5405331
:102720005B00013A53F8044B114620F8024B02F0CB
:10273000030229B39AB1012A0BD0022A04D053F81C
:10274000042B013920F8022B53F8042B013920F80F
:10275000022B53F8042B013920F8022B10D01C4611
:1027600054F8046B8446DD68A4882CF8026B9E88BC
:1027700010334680ACF80240C58008300439EED1F1
:1027800070BC7047174A38B51368174C174D238033
:1027900020882B8803EA000111F4007F16D12288DB
:1027A00002F4004C1CEA030F0CD1218801F4806074
:1027B000184206D00B490E4A4FF6FF3008605368A6
:1027C000984738BDFEF738FB2B88EEE709484FF6EF
:1027D000FF53136001784A1C0270FFF7CFFD2B886E
:1027E000DDE700BF445C0040AC49002054490020B4
:1027F00054000020050100201201000202000040E8
:10280000501D4F6000020102030100000902430055
:10281000020100C032090400000102020100052487
:102820000010010524010001042402020524060011
:1028300001070582030800FF09040100020A0000E5
:102840000007050302400000070581024000000068
:1028500004030904160374006F006D0065006B002B
:102860006F0020006E006500740000001C036D0006
:1028700069006E006900730063006F0070006500FE
:102880002000760032006300443A5C446F6B756D43
:10289000656E74795C5F50524F4A454B54595C6D7C
:1028A000696E6973636F70655F7632635C73746DB4
:1028B000333273636F70655C68775F636F6E6669F0
:1028C000672E630000FF00FF00FF00FF00FF00FF16
:1028D00000FF00FF00FF00FF00FF00FF6D696E6951
:1028E00073636F70655F763263203230313230341B
:0428F000313400007F
:1028F4001A03530054004D003300320031003000FD
:1029040000000000000000000000000000C2010000
:1029140000000800502800080400000054280008A3
:10292400160000006C2800081C00000000000020B5
:102934001A0000000C28000843000000F8270008D3
:1029440012000000A91D0008C51C0008AD1B0008EA
:10295400C11B0008C51B0008251C00084D1C0008ED
:10296400B91C0008AD1C00088D1C00080000000004
:102974004000000004010000D90D0008891B000874
:10298400D90D0008D90D0008D90D0008D90D00088B
:10299400D90D0008D90D0008A11B00081D2300084B
:1029A400D90D0008D90D0008D90D0008D90D00086B
:1029B400D90D0008D90D0008D90D0008D90D00085B
:1029C400F9220008D90D0008D90D0008D90D000816
:0429D400D90D000811
:0400000508000000EF
:00000001FF
